:020000001529C0
:10000600831203132230DC00D801D901DA01DB01A7
:10001600DC03031939280310DB0CDA0CD90CD80CD5
:10002600D30CD20CD10CD00C031C0B28DC03031907
:100036002B285408D80755080318550FD907560812
:100046000318560FDA0757080318570FDB070F2850
:100056005408D80755080318550FD907560803182A
:0E006600560FDA0757080318570FDB0708007C
:0C007400831221088A0020088200080086
:10008000A5308312DD00DD0B4328000000000800CE
:10009000E8308312AB000330AC00AD01AE0129089B
:1000A000D0002A08D100D201D301E830D4000330B7
:1000B000D5000030D6000030D70003205008AB0038
:1000C0005108AC005208AD005308AE000030530296
:1000D000031D742800305202031D7428023051029F
:1000E000031D7428B2305002031877280800B2307C
:1000F000D0000230D100D201D3015008AB02510828
:10010000031C510FAC025208031C520FAD025308DE
:10011000031C530FAE020530D00050080319972876
:10012000AE0CAD0CAC0CAB0CAE13FF3E8E282B0806
:10013000D0002C08D1002D08D2002E08D3000130A9
:10014000AB02031CAC02031CAD02031CAE02500840
:100150005104520453040319B628000000000000A3
:0E0160000000000000000000000097280800CA
:10016E008312A501A60180302606D0008030240619
:10017E005002031DC428230825020318D02860301E
:10018E00A900EA30AA0048208312A50A0319A60A7C
:04019E00BA28080073
:1001A2003A208A110A128000840AA00A0319A10ABD
:0801B200D003031DD128080051
:1001BA008312A8012408D1000130D0005108031984
:1001CA00EA28D00D5010FF3EE4285008A700230863
:1001DA00840050080005D10051080130031D003089
:1001EA00D0002608D006031912292508003C031856
:1001FA00022940204020A503FA2823088400270862
:10020A000005D10051080130031D0030D000260836
:10021A00D00603191229FF30A8002808D0000800C8
:10022A000730831299008B01831685018312850199
:10023A008316851522100530A3000330A400FA3076
:10024A00A5000130A600DD208312500803192F29CA
:10025A0022140514221C49290530A3000330A400E6
:10026A00FA30A500A601DD20831250080319492996
:10027A0022100330A3000030A400B72005100A3072
:0C028A00A3000030A400B72020294A295E
:02400E00D431AB
:00000001FF
